:100000000C942A000C9447000C9447000C94470071
:100010000C9447000C9447000C9447000C94470044
:100020000C9447000C9447000C9447000C94470034
:100030000C9447000C9447000C9447000C94470024
:100040000C9447000C9447000C9447000C94470014
:100050000C94470011241FBECFE5D8E0DEBFCDBF12
:1000600010E0A0E6B0E0E2EDF6E002C005900D92EF
:10007000A436B107D9F720E0A4E6B0E001C01D9294
:10008000A338B207E1F70E94E9000C9467030C94CF
:1000900000008F929F92AF92BF92CF92DF92EF9229
:1000A000FF9220E030E040E053E4609169007091FD
:1000B0006A0080916B0090916C000E9447020E9440
:1000C000E8014B015C0120E030E040E053E4609146
:1000D0006D0070916E0080916F00909170000E9491
:1000E00047020E94E8016B017C0120E030E040E023
:1000F00053E4609160007091610080916200909182
:1001000063000E9447020E94E801DC01CB0121E765
:1001100030E0A401B6010E940D0181E083BF89BFD8
:1001200012BE80E090E0A0E8BFE38093600090936F
:100130006100A0936200B093630010926D00109272
:100140006E0010926F001092700010926900109271
:100150006A0010926B0010926C0010926500109271
:100160006600109267001092680080E487B987E803
:1001700086B91BBA1ABA18BA8FEF87BB85BB14BAF7
:1001800083B7896683BFFF90EF90DF90CF90BF90D9
:10019000AF909F908F90089597B18770982B97B9E3
:1001A000369A349BFECF349A84B195B1089520E0FD
:1001B00030E040E053E4609165007091660080910A
:1001C0006700909168000E9447020E94E801CB01FD
:1001D00008950E94490078946894FF24F7F880916C
:1001E000640081708823F1F30E94D700EC0180E065
:1001F0000E94CC008C0181E00E94CC00BC01601BFD
:10020000710B41E750E0CE010E943A01FCBE8091A3
:1002100064008E7F80936400E2CFCF93DF93FB0175
:10022000E9011A821B821C821D82198218829F8317
:100230008E83798768875B874A87BC016F5F7F4FB2
:100240008FEF9FE70E94DC027D876C879F012F5F05
:100250003F4F032E000C440B550B6FEF7FEF8FEFDA
:100260009FE30E94F0022E873F87488B598BDF91D6
:10027000CF910895EF92FF920F931F93CF93DF9347
:100280008B01FA01861B970B2485358528173907C2
:1002900084F0319521953109821793076CF02681FE
:1002A0003781829FE001839FD00D929FD00D112452
:1002B00005C0CFEFDFE702C0C1E0D0E8092E000C97
:1002C000AA0BBB0B42815381648175819A01AB01FA
:1002D000280F391F4A1F5B1F86859785A089B18922
:1002E00082179307A407B5074CF482839383A483F2
:1002F000B5836FEF7FEF8FEF9FE31DC0B095A095A3
:10030000909581959F4FAF4FBF4F281739074A07E8
:100310005B074CF482839383A483B58361E070E030
:1003200080E090EC08C02283338344835583A0850A
:10033000B1850E940F0320813181201B310BA285E2
:10034000B3852A9F70012B9FF00C3A9FF00C11246B
:10035000118300838E01DD0F220B330BAB01BC0137
:10036000400F511F621F731FC701FF0CAA0BBB0B6D
:10037000480F591F6A1F7B1FDB01CA01772324F432
:1003800081589F4FAF4FBF4F689416F8B595A7950A
:10039000979587951694D1F7813020E892072FEF33
:1003A000A207B20724F481E090E8AFEFBFEF811518
:1003B00020E89207A105B10524F08FEF9FE7A0E0A8
:1003C000B0E0DF91CF911F910F91FF90EF900895D2
:1003D0000E94EF016894B1110C94410208950E94AB
:1003E000260288F09F5798F0B92F9927B751B0F09F
:1003F000E1F0660F771F881F991F1AF0BA95C9F7A9
:1004000014C0B13091F00E944002B1E008950C9404
:100410004002672F782F8827B85F39F0B93FCCF3B7
:10042000869577956795B395D9F73EF49095809525
:10043000709561957F4F8F4F9F4F089557FD90584E
:10044000440F551F59F05F3F71F04795880F97FB98
:10045000991F61F09F3F79F0879508951216130652
:100460001406551FF2CF4695F1DF08C01616170681
:100470001806991FF1CF86957105610508940895B6
:10048000E894BB2766277727CB0197F908950E9448
:100490005A020C94CB020E94BD0238F00E94C402A2
:1004A00020F0952311F00C94B4020C94BA0211249C
:1004B0000C9441020E941E0270F3959FC1F3950FA8
:1004C00050E0551F629FF001729FBB27F00DB11DD8
:1004D000639FAA27F00DB11DAA1F649F6627B00D68
:1004E000A11D661F829F2227B00DA11D621F739F51
:1004F000B00DA11D621F839FA00D611D221F749F5F
:100500003327A00D611D231F849F600D211D822FA5
:10051000762F6A2F11249F5750409AF0F1F08823CC
:100520004AF0EE0FFF1FBB1F661F771F881F9150F9
:100530005040A9F79E3F510580F00C94B4020C94F2
:1005400041025F3FE4F3983ED4F386957795679533
:10055000B795F795E7959F5FC1F7FE2B880F911D23
:100560009695879597F9089597F99F6780E870E0C9
:1005700060E008959FEF80EC089500240A94161619
:10058000170618060906089500240A941216130681
:10059000140605060895092E0394000C11F488230F
:1005A00052F0BB0F40F4BF2B11F460FF04C06F5F2B
:1005B0007F4F8F4F9F4F089597FB072E16F400949F
:1005C00007D077FD09D00E94170307FC05D03EF441
:1005D000909581959F4F0895709561957F4F0895EF
:1005E000052E97FB1EF400940E94070357FD07D0C9
:1005F0000E942B0307FC03D04EF40C940703509584
:100600004095309521953F4F4F4F5F4F08959095FE
:100610008095709561957F4F8F4F9F4F0895B7FFDD
:100620000C944D030E944D03821B930B0895AA1B4B
:10063000BB1B51E107C0AA1FBB1FA617B70710F0CD
:10064000A61BB70B881F991F5A95A9F780959095FF
:10065000BC01CD010895A1E21A2EAA1BBB1BFD010E
:100660000DC0AA1FBB1FEE1FFF1FA217B307E40791
:10067000F50720F0A21BB30BE40BF50B661F771FE9
:10068000881F991F1A9469F76095709580959095C9
:100690009B01AC01BD01CF0108950E945803A59FA5
:1006A000900DB49F900DA49F800D911D112408956D
:1006B000A29FB001B39FC001A39F700D811D1124A3
:1006C000911DB29F700D811D1124911D0895F89404
:0206D000FFCF5A
:0406D2000000803F65
:00000001FF
