:100000000C942A000C943C000C943C000C943C0092
:100010000C943C000C943C000C943C000C943C0070
:100020000C943C000C943C000C943C000C943C0060
:100030000C943C000C943C000C943C000C943C0050
:100040000C943C000C943C000C943C000C943C0040
:100050000C943C0011241FBECFE5D8E0DEBFCDBF1D
:1000600020E0A0E6B0E001C01D92A337B207E1F79F
:100070000E948F000C94AF030C94000021E630E046
:1000800040E050E060E070E080E890E00E94AD0069
:1000900081E083BF89BF12BE80E487B987E886B953
:1000A0001BBA1ABA18BA8FEF87BB85BB14BA83B7CD
:1000B000896683BFBB9A089580E487B987E886B9CB
:1000C0001BBA1ABA18BA8FEF87BB85BB14BA08954A
:1000D00083B7896683BFBB9A089597B18770982BC1
:1000E00097B9369A349BFECF349A84B195B108956E
:1000F000BC01990F880B990B0E942B0220E030EC79
:100100004FE754E40E94880120E030E04FE753E4D9
:100110000E94B7020E94FA01625D6CBF08950E94BE
:100120003E000E945C000E9468007894809160000C
:1001300081708823F1F380E00E946D0041E650E079
:10014000BC0180E090E00E94DA000E94780080917B
:1001500060008E7F80936000E9CFCF93DF93FB0137
:10016000E9011A821B821C821D82198218829F83D8
:100170008E83798768875B874A87BC016F5F7F4F73
:100180008FEF9FE70E9424037D876C879F012F5F7D
:100190003F4F032E000C440B550B6FEF7FEF8FEF9B
:1001A0009FE30E9438032E873F87488B598BDF914E
:1001B000CF910895EF92FF920F931F93CF93DF9308
:1001C0008B01FA01861B970B248535852817390783
:1001D00084F0319521953109821793076CF02681BF
:1001E0003781829FE001839FD00D929FD00D112413
:1001F00005C0CFEFDFE702C0C1E0D0E8092E000C58
:10020000AA0BBB0B42815381648175819A01AB01BA
:10021000280F391F4A1F5B1F86859785A089B189E2
:1002200082179307A407B5074CF482839383A483B2
:10023000B5836FEF7FEF8FEF9FE31DC0B095A09563
:10024000909581959F4FAF4FBF4F281739074A07A9
:100250005B074CF482839383A483B58361E070E0F1
:1002600080E090EC08C02283338344835583A085CB
:10027000B1850E94570320813181201B310BA2855B
:10028000B3852A9F70012B9FF00C3A9FF00C11242C
:10029000118300838E01DD0F220B330BAB01BC01F8
:1002A000400F511F621F731FC701FF0CAA0BBB0B2E
:1002B000480F591F6A1F7B1FDB01CA01772324F4F3
:1002C00081589F4FAF4FBF4F689416F8B595A795CB
:1002D000979587951694D1F7813020E892072FEFF4
:1002E000A207B20724F481E090E8AFEFBFEF8115D9
:1002F00020E89207A105B10524F08FEF9FE7A0E069
:10030000B0E0DF91CF911F910F91FF90EF90089592
:100310000E949C010C947D020E94760258F00E947B
:100320006F0240F029F45F3F29F00C9466025111EE
:100330000C94B1020C946C020E948E0268F3992313
:10034000B1F3552391F3951B550BBB27AA276217D1
:100350007307840738F09F5F5F4F220F331F441FDE
:10036000AA1FA9F335D00E2E3AF0E0E832D0915012
:100370005040E695001CCAF72BD0FE2F29D0660FFF
:10038000771F881FBB1F261737074807AB07B0E842
:1003900009F0BB0B802DBF01FF2793585F4F3AF048
:1003A0009E3F510578F00C9466020C94B1025F3FB9
:1003B000E4F3983ED4F3869577956795B795F795CE
:1003C0009F5FC9F7880F911D9695879597F90895B6
:1003D000E1E0660F771F881FBB1F62177307840752
:1003E000BA0720F0621B730B840BBA0BEE1F88F761
:1003F000E09508950E94960288F09F5798F0B92FD3
:100400009927B751B0F0E1F0660F771F881F991F49
:100410001AF0BA95C9F714C0B13091F00E94B00239
:10042000B1E008950C94B002672F782F8827B85F49
:1004300039F0B93FCCF3869577956795B395D9F7A1
:100440003EF490958095709561957F4F8F4F9F4FAB
:100450000895E89409C097FB3EF4909580957095B7
:1004600061957F4F8F4F9F4F9923A9F0F92F96E900
:10047000BB279395F695879577956795B795F11175
:10048000F8CFFAF4BB0F11F460FF1BC06F5F7F4F12
:100490008F4F9F4F16C0882311F096E911C0772324
:1004A00021F09EE8872F762F05C0662371F096E82D
:1004B000862F70E060E02AF09A95660F771F881FFC
:1004C000DAF7880F9695879597F9089597F99F67BA
:1004D00080E870E060E008959FEF80EC08950024CC
:1004E0000A941616170618060906089500240A9499
:1004F00012161306140605060895092E0394000C1F
:1005000011F4882352F0BB0F40F4BF2B11F460FFAD
:1005100004C06F5F7F4F8F4F9F4F089557FD9058D6
:10052000440F551F59F05F3F71F04795880F97FBB7
:10053000991F61F09F3F79F0879508951216130671
:100540001406551FF2CF4695F1DF08C016161706A0
:100550001806991FF1CF86957105610508940895D5
:10056000E894BB2766277727CB0197F908950E9467
:10057000CA020C947D020E946F0238F00E9476023B
:1005800020F0952311F00C9466020C946C02112457
:100590000C94B1020E948E0270F3959FC1F3950FE7
:1005A00050E0551F629FF001729FBB27F00DB11DF7
:1005B000639FAA27F00DB11DAA1F649F6627B00D87
:1005C000A11D661F829F2227B00DA11D621F739F70
:1005D000B00DA11D621F839FA00D611D221F749F7E
:1005E0003327A00D611D231F849F600D211D822FC5
:1005F000762F6A2F11249F5750409AF0F1F08823EC
:100600004AF0EE0FFF1FBB1F661F771F881F915018
:100610005040A9F79E3F510580F00C9466020C945F
:10062000B1025F3FE4F3983ED4F3869577956795E2
:10063000B795F795E7959F5FC1F7FE2B880F911D42
:100640009695879597F9089597FB072E16F40094D1
:1006500007D077FD09D00E945F0307FC05D03EF468
:10066000909581959F4F0895709561957F4F08955E
:10067000052E97FB1EF400940E944F0357FD07D0F0
:100680000E94730307FC03D04EF40C944F03509563
:100690004095309521953F4F4F4F5F4F089590956E
:1006A0008095709561957F4F8F4F9F4F0895B7FF4D
:1006B0000C9495030E949503821B930B0895AA1B2B
:1006C000BB1B51E107C0AA1FBB1FA617B70710F03D
:1006D000A61BB70B881F991F5A95A9F7809590956F
:1006E000BC01CD010895A1E21A2EAA1BBB1BFD017E
:1006F0000DC0AA1FBB1FEE1FFF1FA217B307E40701
:10070000F50720F0A21BB30BE40BF50B661F771F58
:10071000881F991F1A9469F7609570958095909538
:100720009B01AC01BD01CF0108950E94A003A59FCC
:10073000900DB49F900DA49F800D911D11240895DC
:10074000A29FB001B39FC001A39F700D811D112412
:10075000911DB29F700D811D1124911D0895F89473
:02076000FFCFC9
:00000001FF
