:100000000C945C000C9479000C9479000C947900A9
:100010000C9479000C9479000C9479000C9479007C
:100020000C9479000C9479000C9479000C9479006C
:100030000C9479000C9479000C9479000C9479005C
:100040000C9479000C9479000C9479000C9479004C
:100050000C94790001020408102040800000000088
:100060000001020408102040800102040810204012
:1000700080000000804020100804020102020202F9
:10008000020202020000000000040404040404044C
:100090000403030303030303030000000101010140
:1000A0000101010100003B00380035003200000072
:1000B0003A0037003400310011241FBECFE5D8E0EC
:1000C000DEBFCDBF10E0A0E6B0E0E4EDFAE002C094
:1000D00005900D92A436B107D9F720E0A4E6B0E070
:1000E00001C01D92A338B207E1F70E946F010C9482
:1000F00068050C94000097B18770982B97B9369AD1
:10010000349BFECF349A84B195B108954F925F929B
:100110006F927F928F929F92AF92BF92CF92DF9217
:10012000EF92FF926091690070916A0080916B007C
:1001300090916C00C0906D00D0906E00E0906F00C8
:10014000F0907000409060005090610060906200FC
:100150007090630020E030E040E053E40E944804E7
:100160000E94AC034B015C0120E030E040E053E42E
:10017000C701B6010E9448040E94AC036B017C01D8
:1001800020E030E040E053E4C301B2010E944804A3
:100190000E94AC03DC01CB0121E730E0A401B601F1
:1001A0000E94930181E083BF89BF12BE83E00E9459
:1001B0007B00BC01990F880B990B0E94E40320E09F
:1001C00030E040E85AE30E94480460936000709376
:1001D0006100809362009093630084E00E947B0042
:1001E000BC01990F880B990B0E94E40320E030E0DA
:1001F00040E85AE30E94480460936D0070936E00DB
:1002000080936F009093700085E00E947B00BC019A
:10021000990F880B990B0E94E40320E030E040E83E
:100220005AE30E9448046093690070936A008093C7
:100230006B0090936C0086E00E947B00BC01990FDC
:10024000880B990B0E94E40320E030E040E85AE379
:100250000E94480460936500709366008093670075
:100260009093680080E487B961E083E10E946E02A8
:1002700040ED57E060E070E083E190E00E94AB0267
:1002800060E883E10E94560387E886B91BBA1ABA70
:1002900018BA8FEF87BB85BB14BA83B7896683BF53
:1002A000FF90EF90DF90CF90BF90AF909F908F9096
:1002B0007F906F905F904F9008956091650070916E
:1002C0006600809167009091680020E030E040E097
:1002D00053E40E9448040E94AC03CB0108950E949D
:1002E000860078946894FF24F7F880916400817008
:1002F0008823F1F30E945D01EC0180E00E947B0005
:100300008C0181E00E947B00BC01601B710B41E706
:1003100050E0CE010E94C001FCBE809164008E7F3F
:1003200080936400E2CFCF93DF93FB01E9011A824F
:100330001B821C821D82198218829F838E8379877B
:1003400068875B874A87BC016F5F7F4F8FEF9FE7AE
:100350000E94DD047D876C879F012F5F3F4F032E36
:10036000000C440B550B6FEF7FEF8FEF9FE30E9464
:1003700013052E873F87488B598BDF91CF910895C6
:10038000EF92FF920F931F93CF93DF938B01FA01AC
:10039000861B970B248535852817390784F03195FE
:1003A00021953109821793076CF026813781829F4E
:1003B000E001839FD00D929FD00D112405C0CFEF97
:1003C000DFE702C0C1E0D0E8092E000CAA0BBB0B8E
:1003D00042815381648175819A01AB01280F391FD5
:1003E0004A1F5B1F86859785A089B189821793076D
:1003F000A407B5074CF482839383A483B5836FEF7E
:100400007FEF8FEF9FE31DC0B095A09590958195EC
:100410009F4FAF4FBF4F281739074A075B074CF470
:1004200082839383A483B58361E070E080E090ECE5
:1004300008C02283338344835583A085B1850E94FD
:10044000410520813181201B310BA285B3852A9F74
:1004500070012B9FF00C3A9FF00C11241183008344
:100460008E01DD0F220B330BAB01BC01400F511F7E
:10047000621F731FC701FF0CAA0BBB0B480F591F4C
:100480006A1F7B1FDB01CA01772324F481589F4F29
:10049000AF4FBF4F689416F8B595A7959795879578
:1004A0001694D1F7813020E892072FEFA207B20708
:1004B00024F481E090E8AFEFBFEF811520E89207C8
:1004C000A105B10524F08FEF9FE7A0E0B0E0DF9138
:1004D000CF911F910F91FF90EF900895CF93DF93ED
:1004E000815090E0FC01EC5AFF4F2491FC01E4584C
:1004F000FF4F8491882361F190E0880F991FFC01E0
:10050000E255FF4FA591B491FC01EC55FF4FC59109
:10051000D49161110BC09FB78C91E22FE0958E238F
:100520008C932881E223E8839FBF12C0623059F484
:100530009FB73C91822F809583238C93E881E22B97
:10054000E8839FBF05C08FB7EC91E22BEC938FBF80
:10055000DF91CF9108958430910509F472C09C0118
:10056000225131092230310508F479C085319105D5
:1005700009F09BC06DC013BE089515BC08951FBC43
:100580001EBC08958531910501F570C04B3C21E0FA
:1005900052076105710538F443375105610571054E
:1005A00020F425E003C023E001C024E0049751F4C7
:1005B00003C021E001C022E0286423BF089521E0A8
:1005C00001C022E0286425BD08958FB59EB5807FC7
:1005D00082608FBD892F807E982F99619EBD9A0180
:1005E000AB01213C96EC39079DE24907510520F00B
:1005F00020EC36EC4DE250E0273B3105410551053A
:1006000090F48C618EBD60E07BE187EB90E00E940E
:10061000F104BB27A52F942F832F0197A109B109BE
:1006200097BD86BD089560E07BE187EB90E00E9476
:10063000F104DA01C9010197A109B10997BD86BD8D
:100640000895411551056105710509F494CF16C04F
:10065000411551056105710509F48FCF07C041159A
:1006600051056105710509F48ACF8CCF411527E644
:1006700052076105710508F0A2CF0FC0411527E6AA
:1006800052076105710508F094CF413E2CE05207F6
:100690006105710508F08FCF79CF413E2CE05207FC
:1006A0006105710508F08DCF71CF0895CF93DF9369
:1006B000C62F843041F09EEE980F9230D0F08531F5
:1006C00009F047C00BC083B78F7C6111806283BF84
:1006D000CCBF61E084E00E946E023BC085B58F7C98
:1006E0006111806285BDC3BD61E085E10E946E023B
:1006F00030C0DFB58231B9F4DF736111D06861E0D9
:1007000082E10E946E02DFBDA6B5B7B52C2F30E0A6
:100710000E9432052FEF30E040E050E00E94F104EB
:100720003BBD2ABD16C0DF7C6111D06261E083E170
:100730000E946E02DFBDA6B5B7B52C2F30E00E9437
:1007400032052FEF30E040E050E00E94F10439BD67
:1007500028BDDF91CF9108950E94B3036894B11131
:100760000C94420408950E94270488F09F5798F043
:10077000B92F9927B751B0F0E1F0660F771F881FA6
:10078000991F1AF0BA95C9F714C0B13091F00E94C0
:100790004104B1E008950C944104672F782F882715
:1007A000B85F39F0B93FCCF3869577956795B395E7
:1007B000D9F73EF490958095709561957F4F8F4F56
:1007C0009F4F0895E89409C097FB3EF4909580955B
:1007D000709561957F4F8F4F9F4F9923A9F0F92F07
:1007E00096E9BB279395F695879577956795B79585
:1007F000F111F8CFFAF4BB0F11F460FF1BC06F5F6B
:100800007F4F8F4F9F4F16C0882311F096E911C07C
:10081000772321F09EE8872F762F05C0662371F09D
:1008200096E8862F70E060E02AF09A95660F771FB1
:10083000881FDAF7880F9695879597F9089557FDE1
:100840009058440F551F59F05F3F71F04795880F3E
:1008500097FB991F61F09F3F79F0879508951216D5
:1008600013061406551FF2CF4695F1DF08C0161681
:1008700017061806991FF1CF869571056105089432
:100880000895E894BB2766277727CB0197F9089549
:100890000E945B040C94CC040E94BE0438F00E94B9
:1008A000C50420F0952311F00C94B5040C94BB04FE
:1008B00011240C9442040E941F0470F3959FC1F30D
:1008C000950F50E0551F629FF001729FBB27F00DFE
:1008D000B11D639FAA27F00DB11DAA1F649F662753
:1008E000B00DA11D661F829F2227B00DA11D621FA2
:1008F000739FB00DA11D621F839FA00D611D221F5C
:10090000749F3327A00D611D231F849F600D211D3F
:10091000822F762F6A2F11249F5750409AF0F1F0C2
:1009200088234AF0EE0FFF1FBB1F661F771F881F2B
:1009300091505040A9F79E3F510580F00C94B504AA
:100940000C9442045F3FE4F3983ED4F38695779588
:100950006795B795F795E7959F5FC1F7FE2B880FD1
:10096000911D9695879597F9089597F99F6780E867
:1009700070E060E008959FEF80EC089500240A94F1
:100980001616170618060906089500240A9412166A
:100990001306140605060895092E0394000C11F49D
:1009A000882352F0BB0F40F4BF2B11F460FF04C04A
:1009B0006F5F7F4F8F4F9F4F089597FB072E16F461
:1009C000009407D077FD09D00E94490507FC05D0A7
:1009D0003EF4909581959F4F0895709561957F4F56
:1009E0000895A1E21A2EAA1BBB1BFD010DC0AA1F70
:1009F000BB1FEE1FFF1FA217B307E407F50720F088
:100A0000A21BB30BE40BF50B661F771F881F991F02
:100A10001A9469F760957095809590959B01AC014B
:100A2000BD01CF010895052E97FB1EF400940E948E
:100A30002A0557FD07D00E94F10407FC03D04EF4AD
:100A40000C942A0550954095309521953F4F4F4F76
:100A50005F4F089590958095709561957F4F8F4F6A
:100A60009F4F0895A29FB001B39FC001A39F700D37
:100A7000811D1124911DB29F700D811D1124911DA6
:100A80000895B7FF0C945D050E945D05821B930BD2
:100A90000895AA1BBB1B51E107C0AA1FBB1FA617C5
:100AA000B70710F0A61BB70B881F991F5A95A9F717
:100AB00080959095BC01CD0108950E943205A59FB7
:100AC000900DB49F900DA49F800D911D1124089549
:040AD000F894FFCFC8
:040AD4000000803F5F
:00000001FF
