:100000000C942A000C9447000C9447000C94470071
:100010000C9447000C9447000C9447000C94470044
:100020000C9447000C9447000C9447000C94470034
:100030000C9447000C9447000C9447000C94470024
:100040000C9447000C9447000C9447000C94470014
:100050000C94470011241FBECFE5D8E0DEBFCDBF12
:1000600010E0A0E6B0E0EEE1F8E002C005900D92ED
:10007000A436B107D9F720E0A4E6B0E001C01D9294
:10008000A338B207E1F70E94EA000C940D040C9427
:1000900000008F929F92AF92BF92CF92DF92EF9229
:1000A000FF9220E030E040E053E4609169007091FD
:1000B0006A0080916B0090916C000E9415030E9471
:1000C00051024B015C0120E030E040E053E46091DC
:1000D0006D0070916E0080916F00909170000E9491
:1000E00015030E9451026B017C0120E030E040E0EA
:1000F00053E4609160007091610080916200909182
:1001000063000E9415030E945102DC01CB0121E72C
:1001100030E0A401B6010E94040181E083BF89BFE1
:1001200012BE109260001092610010926200109254
:10013000630010926D0010926E0010926F0010928A
:1001400070001092690010926A0010926B00109279
:100150006C00109265001092660010926700109279
:10016000680080E487B987E886B91BBA1ABA18BA5A
:100170008FEF87BB85BB14BA83B7896683BFFF90B7
:10018000EF90DF90CF90BF90AF909F908F900895A9
:10019000BC01990F880B990B0E94890220E030EC7A
:1001A0004FE754E40E94DF0120E030E04FE753E4E2
:1001B0000E9415030E945802625D6CBF089597B1BA
:1001C0008770982B97B9369A349BFECF349A84B1B6
:1001D00095B108950E9449007894809164008170DF
:1001E0008823F1F380E00E94DF0041E750E0BC018A
:1001F00080E090E00E9431010E94C800809164007C
:100200008E7F80936400E9CFCF93DF93FB01E901F8
:100210001A821B821C821D82198218829F838E8300
:10022000798768875B874A87BC016F5F7F4F8FEF55
:100230009FE70E9482037D876C879F012F5F3F4F5E
:10024000032E000C440B550B6FEF7FEF8FEF9FE3F6
:100250000E9496032E873F87488B598BDF91CF9161
:100260000895EF92FF920F931F93CF93DF938B012B
:10027000FA01861B970B248535852817390784F0EA
:10028000319521953109821793076CF026813781CA
:10029000829FE001839FD00D929FD00D112405C055
:1002A000CFEFDFE702C0C1E0D0E8092E000CAA0BB7
:1002B000BB0B42815381648175819A01AB01280F88
:1002C000391F4A1F5B1F86859785A089B1898217D0
:1002D0009307A407B5074CF482839383A483B58363
:1002E0006FEF7FEF8FEF9FE31DC0B095A0959095C6
:1002F00081959F4FAF4FBF4F281739074A075B07BC
:100300004CF482839383A483B58361E070E080E042
:1003100090EC08C02283338344835583A085B18544
:100320000E94B50320813181201B310BA285B3854A
:100330002A9F70012B9FF00C3A9FF00C112411831F
:1003400000838E01DD0F220B330BAB01BC01400F8C
:10035000511F621F731FC701FF0CAA0BBB0B480F75
:10036000591F6A1F7B1FDB01CA01772324F48158C0
:100370009F4FAF4FBF4F689416F8B595A7959795C7
:1003800087951694D1F7813020E892072FEFA207C6
:10039000B20724F481E090E8AFEFBFEF811520E8C9
:1003A0009207A105B10524F08FEF9FE7A0E0B0E030
:1003B000DF91CF911F910F91FF90EF9008950E94D0
:1003C000F3010C94DB020E94D40258F00E94CD028B
:1003D00040F029F45F3F29F00C94C40251110C94B1
:1003E0000F030C94CA020E94EC0268F39923B1F344
:1003F000552391F3951B550BBB27AA27621773074B
:10040000840738F09F5F5F4F220F331F441FAA1FDE
:10041000A9F335D00E2E3AF0E0E832D0915050409A
:10042000E695001CCAF72BD0FE2F29D0660F771F48
:10043000881FBB1F261737074807AB07B0E809F02E
:10044000BB0B802DBF01FF2793585F4F3AF09E3FB3
:10045000510578F00C94C4020C940F035F3FE4F351
:10046000983ED4F3869577956795B795F7959F5FF6
:10047000C9F7880F911D9695879597F90895E1E042
:10048000660F771F881FBB1F621773078407BA07A1
:1004900020F0621B730B840BBA0BEE1F88F7E095FC
:1004A00008950E9458026894B1110C940F030895A6
:1004B0000E94F40288F09F5798F0B92F9927B751FE
:1004C000B0F0E1F0660F771F881F991F1AF0BA95F8
:1004D000C9F714C0B13091F00E940E03B1E0089545
:1004E0000C940E03672F782F8827B85F39F0B93F37
:1004F000CCF3869577956795B395D9F73EF49095AB
:100500008095709561957F4F8F4F9F4F0895E89428
:1005100009C097FB3EF490958095709561957F4F4B
:100520008F4F9F4F9923A9F0F92F96E9BB279395F9
:10053000F695879577956795B795F111F8CFFAF409
:10054000BB0F11F460FF1BC06F5F7F4F8F4F9F4F3A
:1005500016C0882311F096E911C0772321F09EE898
:10056000872F762F05C0662371F096E8862F70E0FE
:1005700060E02AF09A95660F771F881FDAF7880FD8
:100580009695879597F9089597F99F6780E870E0A9
:1005900060E008959FEF80EC089500240A941616F9
:1005A000170618060906089500240A941216130661
:1005B000140605060895092E0394000C11F48823EF
:1005C00052F0BB0F40F4BF2B11F460FF04C06F5F0B
:1005D0007F4F8F4F9F4F089557FD9058440F551FE1
:1005E00059F05F3F71F04795880F97FB991F61F0B5
:1005F0009F3F79F087950895121613061406551F2C
:10060000F2CF4695F1DF08C0161617061806991F97
:10061000F1CF86957105610508940895E894BB278C
:1006200066277727CB0197F908950E9428030C9439
:10063000DB020E94CD0238F00E94D40220F0952304
:1006400011F00C94C4020C94CA0211240C940F03F0
:100650000E94EC0270F3959FC1F3950F50E0551F77
:10066000629FF001729FBB27F00DB11D639FAA2707
:10067000F00DB11DAA1F649F6627B00DA11D661F56
:10068000829F2227B00DA11D621F739FB00DA11D77
:10069000621F839FA00D611D221F749F3327A00D31
:1006A000611D231F849F600D211D822F762F6A2FCD
:1006B00011249F5750409AF0F1F088234AF0EE0F32
:1006C000FF1FBB1F661F771F881F91505040A9F75F
:1006D0009E3F510580F00C94C4020C940F035F3FC1
:1006E000E4F3983ED4F3869577956795B795F7959B
:1006F000E7959F5FC1F7FE2B880F911D9695879513
:1007000097F9089597FB072E16F4009407D077FD0C
:1007100009D00E94BD0307FC05D03EF49095819559
:100720009F4F0895709561957F4F0895052E97FB13
:100730001EF400940E94AD0357FD07D00E94D10320
:1007400007FC03D04EF40C94AD03509540953095C2
:1007500021953F4F4F4F5F4F08959095809570952D
:1007600061957F4F8F4F9F4F0895B7FF0C94F30310
:100770000E94F303821B930B0895AA1BBB1B51E13C
:1007800007C0AA1FBB1FA617B70710F0A61BB70B01
:10079000881F991F5A95A9F780959095BC01CD01A6
:1007A0000895A1E21A2EAA1BBB1BFD010DC0AA1FB2
:1007B000BB1FEE1FFF1FA217B307E407F50720F0CA
:1007C000A21BB30BE40BF50B661F771F881F991F45
:1007D0001A9469F760957095809590959B01AC018E
:1007E000BD01CF0108950E94FE03A59F900DB49F07
:1007F000900DA49F800D911D11240895A29FB0011A
:10080000B39FC001A39F700D811D1124911DB29F44
:0E081000700D811D1124911D0895F894FFCFE5
:04081E000000803F17
:00000001FF
